{
  "contractName": "ReactExample",
  "abi": [
    {
      "constant": true,
      "inputs": [],
      "name": "pseudoRandomResult",
      "outputs": [
        {
          "name": "",
          "type": "bool"
        }
      ],
      "payable": false,
      "stateMutability": "view",
      "type": "function"
    },
    {
      "constant": true,
      "inputs": [],
      "name": "you_awesome",
      "outputs": [
        {
          "name": "",
          "type": "string"
        }
      ],
      "payable": false,
      "stateMutability": "view",
      "type": "function"
    },
    {
      "inputs": [],
      "payable": false,
      "stateMutability": "nonpayable",
      "type": "constructor"
    },
    {
      "payable": true,
      "stateMutability": "payable",
      "type": "fallback"
    },
    {
      "anonymous": false,
      "inputs": [
        {
          "indexed": false,
          "name": "result",
          "type": "bool"
        }
      ],
      "name": "ExperimentComplete",
      "type": "event"
    },
    {
      "constant": true,
      "inputs": [],
      "name": "getSecret",
      "outputs": [
        {
          "name": "",
          "type": "string"
        }
      ],
      "payable": false,
      "stateMutability": "view",
      "type": "function"
    },
    {
      "constant": true,
      "inputs": [],
      "name": "getState",
      "outputs": [
        {
          "name": "",
          "type": "string"
        }
      ],
      "payable": false,
      "stateMutability": "view",
      "type": "function"
    },
    {
      "constant": false,
      "inputs": [
        {
          "name": "newState",
          "type": "string"
        }
      ],
      "name": "setState",
      "outputs": [],
      "payable": true,
      "stateMutability": "payable",
      "type": "function"
    },
    {
      "constant": false,
      "inputs": [],
      "name": "setExperimentInMotion",
      "outputs": [
        {
          "name": "",
          "type": "bool"
        }
      ],
      "payable": true,
      "stateMutability": "payable",
      "type": "function"
    },
    {
      "constant": false,
      "inputs": [],
      "name": "kill",
      "outputs": [],
      "payable": false,
      "stateMutability": "nonpayable",
      "type": "function"
    }
  ],
  "bytecode": "0x608060405234801561001057600080fd5b50336000806101000a81548173ffffffffffffffffffffffffffffffffffffffff021916908373ffffffffffffffffffffffffffffffffffffffff1602179055506040805190810160405280600f81526020017f596f752061726520617765736f6d6500000000000000000000000000000000008152506001908051906020019061009c92919061013a565b506040805190810160405280600b81526020017f7365637265742064617461000000000000000000000000000000000000000000815250600290805190602001906100e892919061013a565b506040805190810160405280600d81526020017f696e697469616c207374617465000000000000000000000000000000000000008152506003908051906020019061013492919061013a565b506101df565b828054600181600116156101000203166002900490600052602060002090601f016020900481019282601f1061017b57805160ff19168380011785556101a9565b828001600101855582156101a9579182015b828111156101a857825182559160200191906001019061018d565b5b5090506101b691906101ba565b5090565b6101dc91905b808211156101d85760008160009055506001016101c0565b5090565b90565b61077d806101ee6000396000f300608060405260043610610083576000357c0100000000000000000000000000000000000000000000000000000000900463ffffffff168063170946c7146100885780631865c57d146100aa57806341c0e1b51461013a57806349fad5dd146101515780635b9fdc301461018057806368794b8714610210578063e1f580841461026c575b600080fd5b6100906102fc565b604051808215151515815260200191505060405180910390f35b3480156100b657600080fd5b506100bf610408565b6040518080602001828103825283818151815260200191508051906020019080838360005b838110156100ff5780820151818401526020810190506100e4565b50505050905090810190601f16801561012c5780820380516001836020036101000a031916815260200191505b509250505060405180910390f35b34801561014657600080fd5b5061014f6104aa565b005b34801561015d57600080fd5b5061016661053f565b604051808215151515815260200191505060405180910390f35b34801561018c57600080fd5b50610195610552565b6040518080602001828103825283818151815260200191508051906020019080838360005b838110156101d55780820151818401526020810190506101ba565b50505050905090810190601f1680156102025780820380516001836020036101000a031916815260200191505b509250505060405180910390f35b61026a600480360381019080803590602001908201803590602001908080601f01602080910402602001604051908101604052809392919081815260200183838082843782019150505050505091929192905050506105f4565b005b34801561027857600080fd5b5061028161060e565b6040518080602001828103825283818151815260200191508051906020019080838360005b838110156102c15780820151818401526020810190506102a6565b50505050905090810190601f1680156102ee5780820380516001836020036101000a031916815260200191505b509250505060405180910390f35b6000803360003634604051808573ffffffffffffffffffffffffffffffffffffffff1673ffffffffffffffffffffffffffffffffffffffff166c01000000000000000000000000028152601401848480828437820191505082815260200194505050505060405180910390209050600a600102600019168160001916111561039e576001600460006101000a81548160ff0219169083151502179055506103ba565b6000600460006101000a81548160ff0219169083151502179055505b7febfaed7fb7b0aa2190100184364eeaa3c730502de5f7702e86e6644f5a06e7f0600460009054906101000a900460ff16604051808215151515815260200191505060405180910390a15090565b606060038054600181600116156101000203166002900480601f0160208091040260200160405190810160405280929190818152602001828054600181600116156101000203166002900480156104a05780601f10610475576101008083540402835291602001916104a0565b820191906000526020600020905b81548152906001019060200180831161048357829003601f168201915b5050505050905090565b6000809054906101000a900473ffffffffffffffffffffffffffffffffffffffff1673ffffffffffffffffffffffffffffffffffffffff163373ffffffffffffffffffffffffffffffffffffffff1614151561050557600080fd5b6000809054906101000a900473ffffffffffffffffffffffffffffffffffffffff1673ffffffffffffffffffffffffffffffffffffffff16ff5b600460009054906101000a900460ff1681565b606060028054600181600116156101000203166002900480601f0160208091040260200160405190810160405280929190818152602001828054600181600116156101000203166002900480156105ea5780601f106105bf576101008083540402835291602001916105ea565b820191906000526020600020905b8154815290600101906020018083116105cd57829003601f168201915b5050505050905090565b806003908051906020019061060a9291906106ac565b5050565b60018054600181600116156101000203166002900480601f0160208091040260200160405190810160405280929190818152602001828054600181600116156101000203166002900480156106a45780601f10610679576101008083540402835291602001916106a4565b820191906000526020600020905b81548152906001019060200180831161068757829003601f168201915b505050505081565b828054600181600116156101000203166002900490600052602060002090601f016020900481019282601f106106ed57805160ff191683800117855561071b565b8280016001018555821561071b579182015b8281111561071a5782518255916020019190600101906106ff565b5b509050610728919061072c565b5090565b61074e91905b8082111561074a576000816000905550600101610732565b5090565b905600a165627a7a72305820b658d8706bef7cf723c8dcbb4e8c0f5695519a92fdf31cbd695d2064d89dd92b0029",
  "source": "pragma solidity ^0.4.11;\n\ncontract ReactExample {\n\n    //STATE VARIABLES//\n    address private owner;  //declare a private state variable 'owner' of the address type\n    string public you_awesome;  //declare a public state variable 'you_awesome' of the string type\n    string private secret;  //declare a private state variable 'secret' of the string type\n    string private state;   //declare a private state variable 'state' of the string type\n    bool public pseudoRandomResult;  //declare a public state variable 'pseudoRandomResult' of the bool type\n    event ExperimentComplete (bool result);\n\n\n    //CONSTRUCTOR FUNCTION//\n    constructor () public {  //system contstructor function is identified by having the same name as the contract; it runs once - at contract init on the chain\n        owner = msg.sender;            //set 'owner' value to the address that calls the function for the 1st time *always the deployer?*\n        you_awesome = \"You are awesome\"; //set 'you_awesome' value to literal \"You're awesome\"\n        secret = \"secret data\";  //set 'secret' value to literal \"secret data\"\n        state = \"initial state\"; //set 'state' value to literal \"initial state\"\n    }\n\n    //FUNCTION 0//\n    function getSecret () public view returns(string) {  // public function named 'getSecret' visibility is public, has modifiers view & returns: view allows reads of private state variables & returns is necessary if any value is to be returned to the caller\n        return secret;\n    }\n\n    //FUNCTION 1//\n    function getState () public view returns(string) {  // public function named 'getState' visibility is public, has modifiers view & returns: view allows reads of private state variables & returns is necessary if any value is to be returned to the caller\n        return state;\n    }\n\n    //FUNCTION 2//\n    function setState (string newState) public payable {  // public function named 'setState' visibility is public; 'payable' modifier allows ETH deposits\n        state = newState;\n    }\n\n    //FUNCTION 3//\n    function setExperimentInMotion () public payable returns (bool) {\n        bytes32 _pseudoRandomResult = keccak256 (msg.sender, msg.data, msg.value);\n        if (_pseudoRandomResult > bytes32(10)) pseudoRandomResult = true;\n        else pseudoRandomResult = false;\n\n        emit ExperimentComplete (pseudoRandomResult);\n    }\n\n    //KILL FUNCTION//\n    function kill () public {  //public system function kill\n        require (msg.sender == owner);  //address that's calling the function must equal the address value set at init by the deployer\n        selfdestruct (owner);  //'selfdestruct' system function pays out any ETH stored on this contract to the designated address, then the storage and code is slated for removal from state\n    }\n\n    //FALLBACK FUNCTION//\n    function () public payable {  //nameless function is the \"fallback\" function; 'payable' modifier allows ETH deposits; 'revert' function bounces ETH back to invoker\n        revert ();\n    }\n}\n",
  "sourcePath": "/home/icole/Workspace/ReactAndSolidity/contracts/ReactExample.sol",
  "compiler": {
    "name": "solc",
    "version": "0.4.24+commit.e67f0147.Emscripten.clang"
  },
  "schemaVersion": "2.0.0",
  "updatedAt": "2018-06-19T08:39:17.344Z"
}